:100000000C942A000C94DC000C943C000C943C00F2
:100010000C943C000C943C000C943C000C943C0070
:100020000C943C000C943C000C943C000C943C0060
:100030000C943C000C943C000C943C000C943C0050
:100040000C943C000C943C000C943C000C943C0040
:100050000C943C0011241FBECFE5D8E0DEBFCDBF1D
:1000600020E0A0E6B0E001C01D92A136B207E1F7A2
:100070000E94D5000C945A020C940000CF93C0E06B
:100080000DC061E080E00E94D20061E081E00E944A
:10009000D2008AEF90E00E944502CF5FC43188F31E
:1000A000CF91089567E082E00E94C60060E080E0A2
:1000B0000E94C60061E080E00E94C60062E080E02D
:1000C0000E94C60060E081E00E94C60061E081E01D
:1000D0000E94C60062E081E00E94C600789485B765
:1000E000816085BF85B7826085BF8BB780648BBF19
:1000F000089567E082E00E94CA0060E080E00E940C
:10010000CA0062E081E00E94CA0085E090E00E949F
:10011000300260E080E00E94CE0062E081E00E9458
:10012000CE000E943E0062E080E00E94CA0060E0D3
:1001300081E00E94CA0085E090E00E943002809138
:100140006000882319F0813081F0D3CF67E082E02E
:100150000E94CE0062E080E00E94CE0060E081E07C
:100160000E94CE000E943E00C4CF85E090E00E9435
:10017000300262E080E00E94CE0060E081E00E94F8
:10018000CE000E943E0010926000B3CF41E00E947A
:10019000F100089541E00E946801089540E00E9446
:1001A000680108950E94DF0108950E9452000E9494
:1001B000790080E090E008951F920F920FB60F92A1
:1001C00011248F93CA9B07C080916000811103C0E6
:1001D00081E0809360008F910F900FBE0F901F9071
:1001E0001895813019F130F08230E1F1833009F453
:1001F00054C0089541110CC02AB381E090E002C0C0
:10020000880F991F6A95E2F7809582238ABB08952B
:10021000413009F05CC02AB381E090E002C0880F51
:10022000991F6A95E2F7822B8ABB089541110CC091
:1002300027B381E090E002C0880F991F6A95E2F72A
:100240008095822387BB0895413009F040C027B3D1
:1002500081E090E002C0880F991F6A95E2F7822B37
:1002600087BB089541110CC024B381E090E002C027
:10027000880F991F6A95E2F78095822384BB0895C1
:10028000413029F524B381E090E002C0880F991F26
:100290006A95E2F7822B84BB089541110CC021B30B
:1002A00081E090E002C0880F991F6A95E2F780957F
:1002B000822381BB0895413051F421B381E090E065
:1002C00002C0880F991F6A95E2F7822B81BB0895BF
:1002D000813019F130F08230E1F1833009F454C0FB
:1002E000089541110CC02BB381E090E002C0880F4B
:1002F000991F6A95E2F7809582238BBB0895413060
:1003000009F05CC02BB381E090E002C0880F991F18
:100310006A95E2F7822B8BBB089541110CC028B37C
:1003200081E090E002C0880F991F6A95E2F78095FE
:10033000822388BB0895413009F040C028B381E092
:1003400090E002C0880F991F6A95E2F7822B88BB64
:10035000089541110CC025B381E090E002C0880FE0
:10036000991F6A95E2F78095822385BB08954130F5
:1003700029F525B381E090E002C0880F991F6A95A6
:10038000E2F7822B85BB089541110CC022B381E0B6
:1003900090E002C0880F991F6A95E2F7809582234A
:1003A00082BB0895413051F422B381E090E002C055
:1003B000880F991F6A95E2F7822B82BB08958130DE
:1003C00089F028F08230C9F0833011F108952BB301
:1003D00081E090E002C0880F991F6A95E2F78227BA
:1003E0008BBB089528B381E090E002C0880F991F6D
:1003F0006A95E2F7822788BB089525B381E090E0F3
:1004000002C0880F991F6A95E2F7822785BB08957D
:1004100022B381E090E002C0880F991F6A95E2F74D
:10042000822782BB089513BE12BE0895CF93DF9337
:10043000EC010E94130283B7816083BF20E030E0AB
:1004400008C008B600FEFDCF88B7816088BF2F5F67
:100450003F4F2C173D07A8F313BEDF91CF910895AE
:100460000F931F93CF93DF938C01C0E0D0E005C0C2
:1004700084E294EF0E9416022196C017D107C0F3C0
:10048000DF91CF911F910F9108950F931F93CF93F9
:10049000DF938C01C0E0D0E005C08EE390E00E94C5
:1004A00016022196C017D107C0F3DF91CF911F919B
:0804B0000F910895F894FFCFAD
:00000001FF
